{
  "_format": "hh-sol-artifact-1",
  "contractName": "ZikJobAuth",
  "sourceName": "contracts/Account/ZikJobAuth.sol",
  "abi": [
    {
      "anonymous": false,
      "inputs": [
        {
          "indexed": true,
          "internalType": "address",
          "name": "employerAddress",
          "type": "address"
        }
      ],
      "name": "EmployerCreated",
      "type": "event"
    },
    {
      "anonymous": false,
      "inputs": [
        {
          "indexed": true,
          "internalType": "address",
          "name": "previousOwner",
          "type": "address"
        },
        {
          "indexed": true,
          "internalType": "address",
          "name": "newOwner",
          "type": "address"
        }
      ],
      "name": "OwnershipTransferred",
      "type": "event"
    },
    {
      "anonymous": false,
      "inputs": [
        {
          "indexed": true,
          "internalType": "address",
          "name": "zikkieAddress",
          "type": "address"
        }
      ],
      "name": "ZikkieCreated",
      "type": "event"
    },
    {
      "inputs": [],
      "name": "createEmployer",
      "outputs": [
        {
          "internalType": "address",
          "name": "employerAddress",
          "type": "address"
        }
      ],
      "stateMutability": "nonpayable",
      "type": "function"
    },
    {
      "inputs": [],
      "name": "createZikkie",
      "outputs": [
        {
          "internalType": "address",
          "name": "zikkieAddress",
          "type": "address"
        }
      ],
      "stateMutability": "nonpayable",
      "type": "function"
    },
    {
      "inputs": [
        {
          "internalType": "uint256",
          "name": "",
          "type": "uint256"
        }
      ],
      "name": "employers",
      "outputs": [
        {
          "internalType": "address",
          "name": "",
          "type": "address"
        }
      ],
      "stateMutability": "view",
      "type": "function"
    },
    {
      "inputs": [],
      "name": "owner",
      "outputs": [
        {
          "internalType": "address",
          "name": "",
          "type": "address"
        }
      ],
      "stateMutability": "view",
      "type": "function"
    },
    {
      "inputs": [],
      "name": "renounceOwnership",
      "outputs": [],
      "stateMutability": "nonpayable",
      "type": "function"
    },
    {
      "inputs": [
        {
          "internalType": "address",
          "name": "newOwner",
          "type": "address"
        }
      ],
      "name": "transferOwnership",
      "outputs": [],
      "stateMutability": "nonpayable",
      "type": "function"
    },
    {
      "inputs": [
        {
          "internalType": "address",
          "name": "",
          "type": "address"
        }
      ],
      "name": "userToEmployer",
      "outputs": [
        {
          "internalType": "address",
          "name": "",
          "type": "address"
        }
      ],
      "stateMutability": "view",
      "type": "function"
    },
    {
      "inputs": [
        {
          "internalType": "address",
          "name": "",
          "type": "address"
        }
      ],
      "name": "userToZikkie",
      "outputs": [
        {
          "internalType": "address",
          "name": "",
          "type": "address"
        }
      ],
      "stateMutability": "view",
      "type": "function"
    },
    {
      "inputs": [
        {
          "internalType": "uint256",
          "name": "",
          "type": "uint256"
        }
      ],
      "name": "zikkies",
      "outputs": [
        {
          "internalType": "address",
          "name": "",
          "type": "address"
        }
      ],
      "stateMutability": "view",
      "type": "function"
    }
  ],
  "bytecode": "0x608060405234801561001057600080fd5b5061001a3361001f565b61006f565b600080546001600160a01b038381166001600160a01b0319831681178455604051919092169283917f8be0079c531659141344cd1fd0a4f28419497f9722a3daafe3b4186f6b6457e09190a35050565b614f7b8061007e6000396000f3fe608060405234801561001057600080fd5b50600436106100935760003560e01c80638da5cb5b116100665780638da5cb5b146101025780639f09959814610113578063aff71b9e1461013c578063d262135f1461014f578063f2fde38b1461015757600080fd5b8063066c45621461009857806330242b76146100c75780633ab98061146100cf578063715018a6146100f8575b600080fd5b6100ab6100a63660046106f7565b61016a565b6040516001600160a01b03909116815260200160405180910390f35b6100ab610194565b6100ab6100dd3660046106c7565b6001602052600090815260409020546001600160a01b031681565b6101006102f2565b005b6000546001600160a01b03166100ab565b6100ab6101213660046106c7565b6002602052600090815260409020546001600160a01b031681565b6100ab61014a3660046106f7565b61035d565b6100ab61036d565b6101006101653660046106c7565b610486565b6004818154811061017a57600080fd5b6000918252602090912001546001600160a01b0316905081565b600080604051806020016101a7906106ab565b601f1982820381018352601f90910116604052905060006101c53390565b6040516bffffffffffffffffffffffff19606092831b811660208301523090921b909116603482015260480160405160208183030381529060405280519060200120905061025e600082846102173390565b604080516001600160a01b0390921660208301520160408051601f198184030181529082905261024a929160200161074b565b604051602081830303815290604052610551565b3360009081526002602052604080822080546001600160a01b0385166001600160a01b03199182168117909255600480546001810182559085527f8a35acfbc15ff81a39ae7d344fd709f28e8600b4aa8c65c6b64bfe7fe36bd19b018054909116821790559051929550917fdbe56f06be37afe48c2fbb89eaa2eb2789eb1cae5e1ae8a98e9f33e690df48719190a2505090565b6000546001600160a01b031633146103515760405162461bcd60e51b815260206004820181905260248201527f4f776e61626c653a2063616c6c6572206973206e6f7420746865206f776e657260448201526064015b60405180910390fd5b61035b600061065b565b565b6003818154811061017a57600080fd5b60008060405180602001610380906106b9565b601f1982820381018352601f909101166040529050600061039e3390565b6040516bffffffffffffffffffffffff19606092831b811660208301523090921b90911660348201526048016040516020818303038152906040528051906020012090506103f0600082846102173390565b33600090815260016020819052604080832080546001600160a01b0386166001600160a01b0319918216811790925560038054948501815585527fc2575a0e9e593c00f959f8c92f12db2869c3395a3b0502d05e2516446f71f85b9093018054909316811790925551929550917f65c820cc023f1ad109d169646ffcd6e972c733e662c80d8228a1745422fed2319190a2505090565b6000546001600160a01b031633146104e05760405162461bcd60e51b815260206004820181905260248201527f4f776e61626c653a2063616c6c6572206973206e6f7420746865206f776e65726044820152606401610348565b6001600160a01b0381166105455760405162461bcd60e51b815260206004820152602660248201527f4f776e61626c653a206e6577206f776e657220697320746865207a65726f206160448201526564647265737360d01b6064820152608401610348565b61054e8161065b565b50565b600080844710156105a45760405162461bcd60e51b815260206004820152601d60248201527f437265617465323a20696e73756666696369656e742062616c616e63650000006044820152606401610348565b82516105f25760405162461bcd60e51b815260206004820181905260248201527f437265617465323a2062797465636f6465206c656e677468206973207a65726f6044820152606401610348565b8383516020850187f590506001600160a01b0381166106535760405162461bcd60e51b815260206004820152601960248201527f437265617465323a204661696c6564206f6e206465706c6f79000000000000006044820152606401610348565b949350505050565b600080546001600160a01b038381166001600160a01b0319831681178455604051919092169283917f8be0079c531659141344cd1fd0a4f28419497f9722a3daafe3b4186f6b6457e09190a35050565b6123bc806200076183390190565b6124298062002b1d83390190565b6000602082840312156106d957600080fd5b81356001600160a01b03811681146106f057600080fd5b9392505050565b60006020828403121561070957600080fd5b5035919050565b6000815160005b818110156107315760208185018101518683015201610717565b81811115610740576000828601525b509290920192915050565b600061065361075a8386610710565b8461071056fe60806040523480156200001157600080fd5b50604051620023bc380380620023bc8339810160408190526200003491620001f7565b6200004a816200009960201b62000d451760201c565b60408051808201909152600481526355f212eb60e11b6020820152620000917feafec4d89fa9619884b60000abe425d64acd861a49b8ddf5c0b6962110481f388262000100565b505062000266565b6000546001600160a01b03828116911614620000fd57600080546001600160a01b038381166001600160a01b0319831681178455604051919092169283917f8be0079c531659141344cd1fd0a4f28419497f9722a3daafe3b4186f6b6457e09190a3505b50565b60008281526001602090815260409091208251620001219284019062000151565b5060405182907fcdf4e344c0d23d4cdd0474039d176c55b19d531070dbe17856bfb993a5b5720b90600090a25050565b8280546200015f9062000229565b90600052602060002090601f016020900481019282620001835760008555620001ce565b82601f106200019e57805160ff1916838001178555620001ce565b82800160010185558215620001ce579182015b82811115620001ce578251825591602001919060010190620001b1565b50620001dc929150620001e0565b5090565b5b80821115620001dc5760008155600101620001e1565b6000602082840312156200020a57600080fd5b81516001600160a01b03811681146200022257600080fd5b9392505050565b600181811c908216806200023e57607f821691505b602082108114156200026057634e487b7160e01b600052602260045260246000fd5b50919050565b61214680620002766000396000f3fe6080604052600436106100a05760003560e01c806354f6127f1161006457806354f6127f146101b65780636bb56a14146101d6578063715018a6146101e95780637f23690c146101fe5780638da5cb5b1461021e578063f2fde38b1461024657600080fd5b806301ffc9a7146100d957806314a6e2931461010e5780631626ba7e1461013057806344c028fe146101695780634e3e6e9c1461018957600080fd5b366100d457604051349033907f7e71433ddf847725166244795048ecf3e3f9f35628254ecbf73605666423349390600090a3005b600080fd5b3480156100e557600080fd5b506100f96100f4366004611be4565b610266565b60405190151581526020015b60405180910390f35b34801561011a57600080fd5b5061012e610129366004611a3b565b6102c7565b005b34801561013c57600080fd5b5061015061014b366004611b9d565b6103be565b6040516001600160e01b03199091168152602001610105565b61017c610177366004611c8c565b6104ce565b6040516101059190611e19565b34801561019557600080fd5b506101a96101a4366004611a06565b6109ff565b6040516101059190611d9e565b3480156101c257600080fd5b5061017c6101d1366004611b38565b610ab3565b61017c6101e4366004611b51565b610abe565b3480156101f557600080fd5b5061012e610c0f565b34801561020a57600080fd5b5061012e610219366004611b9d565b610c54565b34801561022a57600080fd5b506000546040516001600160a01b039091168152602001610105565b34801561025257600080fd5b5061012e6102613660046119eb565b610c9b565b60006001600160e01b03198216630b135d3f60e11b148061029757506001600160e01b03198216630903c1fd60e31b145b806102b257506001600160e01b03198216631aed5a8560e21b145b806102c157506102c182610daa565b92915050565b336102da6000546001600160a01b031690565b6001600160a01b0316146103095760405162461bcd60e51b815260040161030090611edb565b60405180910390fd5b80518251146103695760405162461bcd60e51b815260206004820152602660248201527f4b657973206c656e677468206e6f7420657175616c20746f2076616c756573206044820152650d8cadccee8d60d31b6064820152608401610300565b60005b82518110156103b9576103b183828151811061038a5761038a6120ce565b60200260200101518383815181106103a4576103a46120ce565b6020026020010151610dcf565b60010161036c565b505050565b6000806103d36000546001600160a01b031690565b90506001600160a01b0381163b1561048e576103f681630b135d3f60e11b610e1e565b610408576001600160e01b0319610486565b604051630b135d3f60e11b81526001600160a01b03821690631626ba7e906104369087908790600401611e00565b60206040518083038186803b15801561044e57600080fd5b505afa158015610462573d6000803e3d6000fd5b505050506040513d601f19601f820116820180604052508101906104869190611c01565b9150506102c1565b6104988484610e41565b6001600160a01b0316816001600160a01b0316146104be576001600160e01b0319610486565b50630b135d3f60e11b9392505050565b6060336104e36000546001600160a01b031690565b6001600160a01b0316146105095760405162461bcd60e51b815260040161030090611edb565b60005a9050866105d057844710156105335760405162461bcd60e51b815260040161030090611e95565b610576868686868080601f016020809104026020016040519081016040528093929190818152602001838380828437600092019190915250879250610e65915050565b9150846001600160a01b038716887f4810874456b8e6487bd861375cf6abd8e1c8bb5858c8ce36a86a04dabfac199e6105af8789611fd6565b6040516001600160e01b0319909116815260200160405180910390a46109f5565b600387141561068f57841561064d5760405162461bcd60e51b815260206004820152603860248201527f455243373235583a2063616e6e6f74207472616e736665722076616c7565207760448201527f697468206f7065726174696f6e2053544154494343414c4c00000000000000006064820152608401610300565b6105768685858080601f016020809104026020016040519081016040528093929190818152602001838380828437600092019190915250869250610ee6915050565b600487141561074e57841561070c5760405162461bcd60e51b815260206004820152603a60248201527f455243373235583a2063616e6e6f74207472616e736665722076616c7565207760448201527f697468206f7065726174696f6e2044454c454741544543414c4c0000000000006064820152608401610300565b6105768685858080601f016020809104026020016040519081016040528093929190818152602001838380828437600092019190915250869250610f61915050565b600187141561084c576001600160a01b0386161561077e5760405162461bcd60e51b815260040161030090611e2c565b8447101561079e5760405162461bcd60e51b815260040161030090611e95565b60006107e08686868080601f016020809104026020016040519081016040528093929190818152602001838380828437600092019190915250610fbb92505050565b6040516001600160601b0319606083901b166020820152909150603401604051602081830303815290604052925085816001600160a01b0316897f01c42bd7e97a66166063b02fce6924e6656b6c2c61966630165095c4fb0b7b2f60405160405180910390a4506109f5565b60028714156109b6576001600160a01b0386161561087c5760405162461bcd60e51b815260040161030090611e2c565b8447101561089c5760405162461bcd60e51b815260040161030090611e95565b60006108ea85858080601f0160208091040260200160405190810160405280939291908181526020018383808284376000920191909152506108e5925060209150889050611fbf565b61106f565b9050600061093986868080601f0160208091040260200160405190810160405280939291908181526020018383808284376000920182905250925061093491506020905089611fbf565b6110cd565b905060006109488884846111da565b6040516001600160601b0319606083901b166020820152909150603401604051602081830303815290604052945087816001600160a01b03168b7f01c42bd7e97a66166063b02fce6924e6656b6c2c61966630165095c4fb0b7b2f60405160405180910390a45050506109f5565b60405162461bcd60e51b815260206004820152601460248201527357726f6e67206f7065726174696f6e207479706560601b6044820152606401610300565b5095945050505050565b6060815167ffffffffffffffff811115610a1b57610a1b6120e4565b604051908082528060200260200182016040528015610a4e57816020015b6060815260200190600190039081610a395790505b50905060005b8251811015610aad57610a7f838281518110610a7257610a726120ce565b60200260200101516112e4565b828281518110610a9157610a916120ce565b6020026020010181905250610aa68160010190565b9050610a54565b50919050565b60606102c1826112e4565b60606000610aeb7f0cfc51aec37c55a4d0b1a65c6255c4bf2fbdf6277f3cc0730c45b828b6db8b476112e4565b90506014815110610bab576000610b0182612006565b60601c9050610b178163c2d7bcc160e01b610e1e565b15610ba957604051635122dded60e11b81526001600160a01b0382169063a245bbda90610b5090339034908b908b908b90600401611d65565b600060405180830381600087803b158015610b6a57600080fd5b505af1158015610b7e573d6000803e3d6000fd5b505050506040513d6000823e601f3d908101601f19168201604052610ba69190810190611c1e565b92505b505b81604051610bb99190611d49565b604051809103902085336001600160a01b03167f9c3ba68eb5742b8e3961aea0afc7371a71bf433c8a67a831803b64c064a178c2348888604051610bff93929190611f10565b60405180910390a4509392505050565b33610c226000546001600160a01b031690565b6001600160a01b031614610c485760405162461bcd60e51b815260040161030090611edb565b610c526000610d45565b565b33610c676000546001600160a01b031690565b6001600160a01b031614610c8d5760405162461bcd60e51b815260040161030090611edb565b610c978282610dcf565b5050565b33610cae6000546001600160a01b031690565b6001600160a01b031614610cd45760405162461bcd60e51b815260040161030090611edb565b6001600160a01b038116610d395760405162461bcd60e51b815260206004820152602660248201527f4f776e61626c653a206e6577206f776e657220697320746865207a65726f206160448201526564647265737360d01b6064820152608401610300565b610d4281610d45565b50565b6000546001600160a01b03828116911614610d4257600080546001600160a01b038381166001600160a01b0319831681178455604051919092169283917f8be0079c531659141344cd1fd0a4f28419497f9722a3daafe3b4186f6b6457e09190a35050565b60006001600160e01b03198216631c537ddf60e21b14806102c157506102c182611386565b60008281526001602090815260409091208251610dee92840190611836565b5060405182907fcdf4e344c0d23d4cdd0474039d176c55b19d531070dbe17856bfb993a5b5720b90600090a25050565b6000610e29836113bb565b8015610e3a5750610e3a83836113ee565b9392505050565b6000806000610e5085856114cd565b91509150610e5d8161153d565b509392505050565b6060600080866001600160a01b0316848787604051610e849190611d49565b600060405180830381858888f193505050503d8060008114610ec2576040519150601f19603f3d011682016040523d82523d6000602084013e610ec7565b606091505b509150915081610edc57610eda816116f8565b505b9695505050505050565b6060600080856001600160a01b03168486604051610f049190611d49565b6000604051808303818686fa925050503d8060008114610f40576040519150601f19603f3d011682016040523d82523d6000602084013e610f45565b606091505b509150915081610f58576109f5816116f8565b95945050505050565b6060600080856001600160a01b03168486604051610f7f9190611d49565b6000604051808303818686f4925050503d8060008114610f40576040519150601f19603f3d011682016040523d82523d6000602084013e610f45565b600081516000141561100f5760405162461bcd60e51b815260206004820152601d60248201527f6e6f20636f6e74726163742062797465636f64652070726f76696465640000006044820152606401610300565b81516020830184f090506001600160a01b0381166102c15760405162461bcd60e51b815260206004820152601960248201527f436f756c64206e6f74206465706c6f7920636f6e7472616374000000000000006044820152606401610300565b600061107c826020611fa7565b835110156110c45760405162461bcd60e51b8152602060048201526015602482015274746f427974657333325f6f75744f66426f756e647360581b6044820152606401610300565b50016020015190565b6060816110db81601f611fa7565b101561111a5760405162461bcd60e51b815260206004820152600e60248201526d736c6963655f6f766572666c6f7760901b6044820152606401610300565b6111248284611fa7565b845110156111685760405162461bcd60e51b8152602060048201526011602482015270736c6963655f6f75744f66426f756e647360781b6044820152606401610300565b60608215801561118757604051915060008252602082016040526111d1565b6040519150601f8416801560200281840101858101878315602002848b0101015b818310156111c05780518352602092830192016111a8565b5050858452601f01601f1916604052505b50949350505050565b6000808447101561122d5760405162461bcd60e51b815260206004820152601d60248201527f437265617465323a20696e73756666696369656e742062616c616e63650000006044820152606401610300565b825161127b5760405162461bcd60e51b815260206004820181905260248201527f437265617465323a2062797465636f6465206c656e677468206973207a65726f6044820152606401610300565b8383516020850187f590506001600160a01b0381166112dc5760405162461bcd60e51b815260206004820152601960248201527f437265617465323a204661696c6564206f6e206465706c6f79000000000000006044820152606401610300565b949350505050565b60008181526001602052604090208054606091906113019061206d565b80601f016020809104026020016040519081016040528092919081815260200182805461132d9061206d565b801561137a5780601f1061134f5761010080835404028352916020019161137a565b820191906000526020600020905b81548152906001019060200180831161135d57829003601f168201915b50505050509050919050565b60006001600160e01b03198216632260147f60e11b14806102c157506301ffc9a760e01b6001600160e01b03198316146102c1565b60006113ce826301ffc9a760e01b6113ee565b80156102c157506113e7826001600160e01b03196113ee565b1592915050565b604080516001600160e01b0319831660248083019190915282518083039091018152604490910182526020810180516001600160e01b03166301ffc9a760e01b179052905160009190829081906001600160a01b0387169061753090611455908690611d49565b6000604051808303818686fa925050503d8060008114611491576040519150601f19603f3d011682016040523d82523d6000602084013e611496565b606091505b50915091506020815110156114b157600093505050506102c1565b818015610edc575080806020019051810190610edc9190611b16565b6000808251604114156115045760208301516040840151606085015160001a6114f887828585611710565b94509450505050611536565b82516040141561152e57602083015160408401516115238683836117fd565b935093505050611536565b506000905060025b9250929050565b6000816004811115611551576115516120b8565b141561155a5750565b600181600481111561156e5761156e6120b8565b14156115bc5760405162461bcd60e51b815260206004820152601860248201527f45434453413a20696e76616c6964207369676e617475726500000000000000006044820152606401610300565b60028160048111156115d0576115d06120b8565b141561161e5760405162461bcd60e51b815260206004820152601f60248201527f45434453413a20696e76616c6964207369676e6174757265206c656e677468006044820152606401610300565b6003816004811115611632576116326120b8565b141561168b5760405162461bcd60e51b815260206004820152602260248201527f45434453413a20696e76616c6964207369676e6174757265202773272076616c604482015261756560f01b6064820152608401610300565b600481600481111561169f5761169f6120b8565b1415610d425760405162461bcd60e51b815260206004820152602260248201527f45434453413a20696e76616c6964207369676e6174757265202776272076616c604482015261756560f01b6064820152608401610300565b8051606090156100d45781518083602001fd5b919050565b6000807f7fffffffffffffffffffffffffffffff5d576e7357a4501ddfe92f46681b20a083111561174757506000905060036117f4565b8460ff16601b1415801561175f57508460ff16601c14155b1561177057506000905060046117f4565b6040805160008082526020820180845289905260ff881692820192909252606081018690526080810185905260019060a0016020604051602081039080840390855afa1580156117c4573d6000803e3d6000fd5b5050604051601f1901519150506001600160a01b0381166117ed576000600192509250506117f4565b9150600090505b94509492505050565b6000806001600160ff1b0383168161181a60ff86901c601b611fa7565b905061182887828885611710565b935093505050935093915050565b8280546118429061206d565b90600052602060002090601f01602090048101928261186457600085556118aa565b82601f1061187d57805160ff19168380011785556118aa565b828001600101855582156118aa579182015b828111156118aa57825182559160200191906001019061188f565b506118b69291506118ba565b5090565b5b808211156118b657600081556001016118bb565b80356001600160a01b038116811461170b57600080fd5b600082601f8301126118f757600080fd5b8135602061190c61190783611f5b565b611f2a565b80838252828201915082860187848660051b890101111561192c57600080fd5b60005b8581101561194b5781358452928401929084019060010161192f565b5090979650505050505050565b60008083601f84011261196a57600080fd5b50813567ffffffffffffffff81111561198257600080fd5b60208301915083602082850101111561153657600080fd5b600082601f8301126119ab57600080fd5b81356119b961190782611f7f565b8181528460208386010111156119ce57600080fd5b816020850160208301376000918101602001919091529392505050565b6000602082840312156119fd57600080fd5b610e3a826118cf565b600060208284031215611a1857600080fd5b813567ffffffffffffffff811115611a2f57600080fd5b6112dc848285016118e6565b60008060408385031215611a4e57600080fd5b823567ffffffffffffffff80821115611a6657600080fd5b611a72868387016118e6565b9350602091508185013581811115611a8957600080fd5b8501601f81018713611a9a57600080fd5b8035611aa861190782611f5b565b8082825285820191508584018a878560051b8701011115611ac857600080fd5b6000805b85811015611b0357823588811115611ae2578283fd5b611af08e8b838b010161199a565b8652509388019391880191600101611acc565b5050508096505050505050509250929050565b600060208284031215611b2857600080fd5b81518015158114610e3a57600080fd5b600060208284031215611b4a57600080fd5b5035919050565b600080600060408486031215611b6657600080fd5b83359250602084013567ffffffffffffffff811115611b8457600080fd5b611b9086828701611958565b9497909650939450505050565b60008060408385031215611bb057600080fd5b82359150602083013567ffffffffffffffff811115611bce57600080fd5b611bda8582860161199a565b9150509250929050565b600060208284031215611bf657600080fd5b8135610e3a816120fa565b600060208284031215611c1357600080fd5b8151610e3a816120fa565b600060208284031215611c3057600080fd5b815167ffffffffffffffff811115611c4757600080fd5b8201601f81018413611c5857600080fd5b8051611c6661190782611f7f565b818152856020838501011115611c7b57600080fd5b610f5882602083016020860161203d565b600080600080600060808688031215611ca457600080fd5b85359450611cb4602087016118cf565b935060408601359250606086013567ffffffffffffffff811115611cd757600080fd5b611ce388828901611958565b969995985093965092949392505050565b81835281816020850137506000828201602090810191909152601f909101601f19169091010190565b60008151808452611d3581602086016020860161203d565b601f01601f19169290920160200192915050565b60008251611d5b81846020870161203d565b9190910192915050565b60018060a01b0386168152846020820152836040820152608060608201526000611d93608083018486611cf4565b979650505050505050565b6000602080830181845280855180835260408601915060408160051b870101925083870160005b82811015611df357603f19888603018452611de1858351611d1d565b94509285019290850190600101611dc5565b5092979650505050505050565b8281526040602082015260006112dc6040830184611d1d565b602081526000610e3a6020830184611d1d565b60208082526043908201527f455243373235583a20435245415445206f7065726174696f6e7320726571756960408201527f726520746865207265636569766572206164647265737320746f20626520656d60608201526270747960e81b608082015260a00190565b60208082526026908201527f455243373235583a20696e73756666696369656e742062616c616e636520666f6040820152651c8818d85b1b60d21b606082015260800190565b6020808252818101527f4f776e61626c653a2063616c6c6572206973206e6f7420746865206f776e6572604082015260600190565b838152604060208201526000610f58604083018486611cf4565b604051601f8201601f1916810167ffffffffffffffff81118282101715611f5357611f536120e4565b604052919050565b600067ffffffffffffffff821115611f7557611f756120e4565b5060051b60200190565b600067ffffffffffffffff821115611f9957611f996120e4565b50601f01601f191660200190565b60008219821115611fba57611fba6120a2565b500190565b600082821015611fd157611fd16120a2565b500390565b6001600160e01b03198135818116916004851015611ffe5780818660040360031b1b83161692505b505092915050565b805160208201516001600160601b031980821692919060148310156120355780818460140360031b1b83161693505b505050919050565b60005b83811015612058578181015183820152602001612040565b83811115612067576000848401525b50505050565b600181811c9082168061208157607f821691505b60208210811415610aad57634e487b7160e01b600052602260045260246000fd5b634e487b7160e01b600052601160045260246000fd5b634e487b7160e01b600052602160045260246000fd5b634e487b7160e01b600052603260045260246000fd5b634e487b7160e01b600052604160045260246000fd5b6001600160e01b031981168114610d4257600080fdfea2646970667358221220642700ad5dad609f2e3fc0fdac732fe23a2fd079463af64d612bccee0301d3d064736f6c6343000807003360806040523480156200001157600080fd5b50604051620024293803806200242983398101604081905262000034916200023f565b6200004a81620000e160201b62000d0f1760201c565b60408051808201909152600481526355f212eb60e11b6020820152620000917feafec4d89fa9619884b60000abe425d64acd861a49b8ddf5c0b6962110481f388262000148565b506040805180820190915260048152630b5bea9560e41b6020820152620000d97feafec4d89fa9619884b6b89135626455000000000000000000000000b5bea9508262000148565b5050620002ae565b6000546001600160a01b038281169116146200014557600080546001600160a01b038381166001600160a01b0319831681178455604051919092169283917f8be0079c531659141344cd1fd0a4f28419497f9722a3daafe3b4186f6b6457e09190a3505b50565b60008281526001602090815260409091208251620001699284019062000199565b5060405182907fcdf4e344c0d23d4cdd0474039d176c55b19d531070dbe17856bfb993a5b5720b90600090a25050565b828054620001a79062000271565b90600052602060002090601f016020900481019282620001cb576000855562000216565b82601f10620001e657805160ff191683800117855562000216565b8280016001018555821562000216579182015b8281111562000216578251825591602001919060010190620001f9565b506200022492915062000228565b5090565b5b8082111562000224576000815560010162000229565b6000602082840312156200025257600080fd5b81516001600160a01b03811681146200026a57600080fd5b9392505050565b600181811c908216806200028657607f821691505b60208210811415620002a857634e487b7160e01b600052602260045260246000fd5b50919050565b61216b80620002be6000396000f3fe6080604052600436106100a05760003560e01c806354f6127f1161006457806354f6127f146101b65780636bb56a14146101d6578063715018a6146101e95780637f23690c146101fe5780638da5cb5b1461021e578063f2fde38b1461024657600080fd5b806301ffc9a7146100d957806314a6e2931461010e5780631626ba7e1461013057806344c028fe146101695780634e3e6e9c1461018957600080fd5b366100d457604051349033907f7e71433ddf847725166244795048ecf3e3f9f35628254ecbf73605666423349390600090a3005b600080fd5b3480156100e557600080fd5b506100f96100f4366004611c09565b610266565b60405190151581526020015b60405180910390f35b34801561011a57600080fd5b5061012e610129366004611a60565b610291565b005b34801561013c57600080fd5b5061015061014b366004611bc2565b610388565b6040516001600160e01b03199091168152602001610105565b61017c610177366004611cb1565b610498565b6040516101059190611e3e565b34801561019557600080fd5b506101a96101a4366004611a2b565b6109c9565b6040516101059190611dc3565b3480156101c257600080fd5b5061017c6101d1366004611b5d565b610a7d565b61017c6101e4366004611b76565b610a88565b3480156101f557600080fd5b5061012e610bd9565b34801561020a57600080fd5b5061012e610219366004611bc2565b610c1e565b34801561022a57600080fd5b506000546040516001600160a01b039091168152602001610105565b34801561025257600080fd5b5061012e610261366004611a10565b610c65565b60006001600160e01b03198216635a988c0f60e01b148061028b575061028b82610d74565b92915050565b336102a46000546001600160a01b031690565b6001600160a01b0316146102d35760405162461bcd60e51b81526004016102ca90611f00565b60405180910390fd5b80518251146103335760405162461bcd60e51b815260206004820152602660248201527f4b657973206c656e677468206e6f7420657175616c20746f2076616c756573206044820152650d8cadccee8d60d31b60648201526084016102ca565b60005b82518110156103835761037b838281518110610354576103546120f3565b602002602001015183838151811061036e5761036e6120f3565b6020026020010151610dcf565b600101610336565b505050565b60008061039d6000546001600160a01b031690565b90506001600160a01b0381163b15610458576103c081630b135d3f60e11b610e1e565b6103d2576001600160e01b0319610450565b604051630b135d3f60e11b81526001600160a01b03821690631626ba7e906104009087908790600401611e25565b60206040518083038186803b15801561041857600080fd5b505afa15801561042c573d6000803e3d6000fd5b505050506040513d601f19601f820116820180604052508101906104509190611c26565b91505061028b565b6104628484610e41565b6001600160a01b0316816001600160a01b031614610488576001600160e01b0319610450565b50630b135d3f60e11b9392505050565b6060336104ad6000546001600160a01b031690565b6001600160a01b0316146104d35760405162461bcd60e51b81526004016102ca90611f00565b60005a90508661059a57844710156104fd5760405162461bcd60e51b81526004016102ca90611eba565b610540868686868080601f016020809104026020016040519081016040528093929190818152602001838380828437600092019190915250879250610e65915050565b9150846001600160a01b038716887f4810874456b8e6487bd861375cf6abd8e1c8bb5858c8ce36a86a04dabfac199e6105798789611ffb565b6040516001600160e01b0319909116815260200160405180910390a46109bf565b60038714156106595784156106175760405162461bcd60e51b815260206004820152603860248201527f455243373235583a2063616e6e6f74207472616e736665722076616c7565207760448201527f697468206f7065726174696f6e2053544154494343414c4c000000000000000060648201526084016102ca565b6105408685858080601f016020809104026020016040519081016040528093929190818152602001838380828437600092019190915250869250610ee6915050565b60048714156107185784156106d65760405162461bcd60e51b815260206004820152603a60248201527f455243373235583a2063616e6e6f74207472616e736665722076616c7565207760448201527f697468206f7065726174696f6e2044454c454741544543414c4c00000000000060648201526084016102ca565b6105408685858080601f016020809104026020016040519081016040528093929190818152602001838380828437600092019190915250869250610f61915050565b6001871415610816576001600160a01b038616156107485760405162461bcd60e51b81526004016102ca90611e51565b844710156107685760405162461bcd60e51b81526004016102ca90611eba565b60006107aa8686868080601f016020809104026020016040519081016040528093929190818152602001838380828437600092019190915250610fbb92505050565b6040516001600160601b0319606083901b166020820152909150603401604051602081830303815290604052925085816001600160a01b0316897f01c42bd7e97a66166063b02fce6924e6656b6c2c61966630165095c4fb0b7b2f60405160405180910390a4506109bf565b6002871415610980576001600160a01b038616156108465760405162461bcd60e51b81526004016102ca90611e51565b844710156108665760405162461bcd60e51b81526004016102ca90611eba565b60006108b485858080601f0160208091040260200160405190810160405280939291908181526020018383808284376000920191909152506108af925060209150889050611fe4565b61106f565b9050600061090386868080601f016020809104026020016040519081016040528093929190818152602001838380828437600092018290525092506108fe91506020905089611fe4565b6110cd565b905060006109128884846111da565b6040516001600160601b0319606083901b166020820152909150603401604051602081830303815290604052945087816001600160a01b03168b7f01c42bd7e97a66166063b02fce6924e6656b6c2c61966630165095c4fb0b7b2f60405160405180910390a45050506109bf565b60405162461bcd60e51b815260206004820152601460248201527357726f6e67206f7065726174696f6e207479706560601b60448201526064016102ca565b5095945050505050565b6060815167ffffffffffffffff8111156109e5576109e5612109565b604051908082528060200260200182016040528015610a1857816020015b6060815260200190600190039081610a035790505b50905060005b8251811015610a7757610a49838281518110610a3c57610a3c6120f3565b60200260200101516112e4565b828281518110610a5b57610a5b6120f3565b6020026020010181905250610a708160010190565b9050610a1e565b50919050565b606061028b826112e4565b60606000610ab57f0cfc51aec37c55a4d0b1a65c6255c4bf2fbdf6277f3cc0730c45b828b6db8b476112e4565b90506014815110610b75576000610acb8261202b565b60601c9050610ae18163c2d7bcc160e01b610e1e565b15610b7357604051635122dded60e11b81526001600160a01b0382169063a245bbda90610b1a90339034908b908b908b90600401611d8a565b600060405180830381600087803b158015610b3457600080fd5b505af1158015610b48573d6000803e3d6000fd5b505050506040513d6000823e601f3d908101601f19168201604052610b709190810190611c43565b92505b505b81604051610b839190611d6e565b604051809103902085336001600160a01b03167f9c3ba68eb5742b8e3961aea0afc7371a71bf433c8a67a831803b64c064a178c2348888604051610bc993929190611f35565b60405180910390a4509392505050565b33610bec6000546001600160a01b031690565b6001600160a01b031614610c125760405162461bcd60e51b81526004016102ca90611f00565b610c1c6000610d0f565b565b33610c316000546001600160a01b031690565b6001600160a01b031614610c575760405162461bcd60e51b81526004016102ca90611f00565b610c618282610dcf565b5050565b33610c786000546001600160a01b031690565b6001600160a01b031614610c9e5760405162461bcd60e51b81526004016102ca90611f00565b6001600160a01b038116610d035760405162461bcd60e51b815260206004820152602660248201527f4f776e61626c653a206e6577206f776e657220697320746865207a65726f206160448201526564647265737360d01b60648201526084016102ca565b610d0c81610d0f565b50565b6000546001600160a01b03828116911614610d0c57600080546001600160a01b038381166001600160a01b0319831681178455604051919092169283917f8be0079c531659141344cd1fd0a4f28419497f9722a3daafe3b4186f6b6457e09190a35050565b60006001600160e01b03198216630b135d3f60e11b1480610da557506001600160e01b03198216630903c1fd60e31b145b80610dc057506001600160e01b03198216631aed5a8560e21b145b8061028b575061028b82611386565b60008281526001602090815260409091208251610dee9284019061185b565b5060405182907fcdf4e344c0d23d4cdd0474039d176c55b19d531070dbe17856bfb993a5b5720b90600090a25050565b6000610e29836113ab565b8015610e3a5750610e3a83836113de565b9392505050565b6000806000610e5085856114bd565b91509150610e5d8161152d565b509392505050565b6060600080866001600160a01b0316848787604051610e849190611d6e565b600060405180830381858888f193505050503d8060008114610ec2576040519150601f19603f3d011682016040523d82523d6000602084013e610ec7565b606091505b509150915081610edc57610eda816116e8565b505b9695505050505050565b6060600080856001600160a01b03168486604051610f049190611d6e565b6000604051808303818686fa925050503d8060008114610f40576040519150601f19603f3d011682016040523d82523d6000602084013e610f45565b606091505b509150915081610f58576109bf816116e8565b95945050505050565b6060600080856001600160a01b03168486604051610f7f9190611d6e565b6000604051808303818686f4925050503d8060008114610f40576040519150601f19603f3d011682016040523d82523d6000602084013e610f45565b600081516000141561100f5760405162461bcd60e51b815260206004820152601d60248201527f6e6f20636f6e74726163742062797465636f64652070726f766964656400000060448201526064016102ca565b81516020830184f090506001600160a01b03811661028b5760405162461bcd60e51b815260206004820152601960248201527f436f756c64206e6f74206465706c6f7920636f6e74726163740000000000000060448201526064016102ca565b600061107c826020611fcc565b835110156110c45760405162461bcd60e51b8152602060048201526015602482015274746f427974657333325f6f75744f66426f756e647360581b60448201526064016102ca565b50016020015190565b6060816110db81601f611fcc565b101561111a5760405162461bcd60e51b815260206004820152600e60248201526d736c6963655f6f766572666c6f7760901b60448201526064016102ca565b6111248284611fcc565b845110156111685760405162461bcd60e51b8152602060048201526011602482015270736c6963655f6f75744f66426f756e647360781b60448201526064016102ca565b60608215801561118757604051915060008252602082016040526111d1565b6040519150601f8416801560200281840101858101878315602002848b0101015b818310156111c05780518352602092830192016111a8565b5050858452601f01601f1916604052505b50949350505050565b6000808447101561122d5760405162461bcd60e51b815260206004820152601d60248201527f437265617465323a20696e73756666696369656e742062616c616e636500000060448201526064016102ca565b825161127b5760405162461bcd60e51b815260206004820181905260248201527f437265617465323a2062797465636f6465206c656e677468206973207a65726f60448201526064016102ca565b8383516020850187f590506001600160a01b0381166112dc5760405162461bcd60e51b815260206004820152601960248201527f437265617465323a204661696c6564206f6e206465706c6f790000000000000060448201526064016102ca565b949350505050565b600081815260016020526040902080546060919061130190612092565b80601f016020809104026020016040519081016040528092919081815260200182805461132d90612092565b801561137a5780601f1061134f5761010080835404028352916020019161137a565b820191906000526020600020905b81548152906001019060200180831161135d57829003601f168201915b50505050509050919050565b60006001600160e01b03198216631c537ddf60e21b148061028b575061028b82611700565b60006113be826301ffc9a760e01b6113de565b801561028b57506113d7826001600160e01b03196113de565b1592915050565b604080516001600160e01b0319831660248083019190915282518083039091018152604490910182526020810180516001600160e01b03166301ffc9a760e01b179052905160009190829081906001600160a01b0387169061753090611445908690611d6e565b6000604051808303818686fa925050503d8060008114611481576040519150601f19603f3d011682016040523d82523d6000602084013e611486565b606091505b50915091506020815110156114a1576000935050505061028b565b818015610edc575080806020019051810190610edc9190611b3b565b6000808251604114156114f45760208301516040840151606085015160001a6114e887828585611735565b94509450505050611526565b82516040141561151e5760208301516040840151611513868383611822565b935093505050611526565b506000905060025b9250929050565b6000816004811115611541576115416120dd565b141561154a5750565b600181600481111561155e5761155e6120dd565b14156115ac5760405162461bcd60e51b815260206004820152601860248201527f45434453413a20696e76616c6964207369676e6174757265000000000000000060448201526064016102ca565b60028160048111156115c0576115c06120dd565b141561160e5760405162461bcd60e51b815260206004820152601f60248201527f45434453413a20696e76616c6964207369676e6174757265206c656e6774680060448201526064016102ca565b6003816004811115611622576116226120dd565b141561167b5760405162461bcd60e51b815260206004820152602260248201527f45434453413a20696e76616c6964207369676e6174757265202773272076616c604482015261756560f01b60648201526084016102ca565b600481600481111561168f5761168f6120dd565b1415610d0c5760405162461bcd60e51b815260206004820152602260248201527f45434453413a20696e76616c6964207369676e6174757265202776272076616c604482015261756560f01b60648201526084016102ca565b8051606090156100d45781518083602001fd5b919050565b60006001600160e01b03198216632260147f60e11b148061028b57506301ffc9a760e01b6001600160e01b031983161461028b565b6000807f7fffffffffffffffffffffffffffffff5d576e7357a4501ddfe92f46681b20a083111561176c5750600090506003611819565b8460ff16601b1415801561178457508460ff16601c14155b156117955750600090506004611819565b6040805160008082526020820180845289905260ff881692820192909252606081018690526080810185905260019060a0016020604051602081039080840390855afa1580156117e9573d6000803e3d6000fd5b5050604051601f1901519150506001600160a01b03811661181257600060019250925050611819565b9150600090505b94509492505050565b6000806001600160ff1b0383168161183f60ff86901c601b611fcc565b905061184d87828885611735565b935093505050935093915050565b82805461186790612092565b90600052602060002090601f01602090048101928261188957600085556118cf565b82601f106118a257805160ff19168380011785556118cf565b828001600101855582156118cf579182015b828111156118cf5782518255916020019190600101906118b4565b506118db9291506118df565b5090565b5b808211156118db57600081556001016118e0565b80356001600160a01b03811681146116fb57600080fd5b600082601f83011261191c57600080fd5b8135602061193161192c83611f80565b611f4f565b80838252828201915082860187848660051b890101111561195157600080fd5b60005b8581101561197057813584529284019290840190600101611954565b5090979650505050505050565b60008083601f84011261198f57600080fd5b50813567ffffffffffffffff8111156119a757600080fd5b60208301915083602082850101111561152657600080fd5b600082601f8301126119d057600080fd5b81356119de61192c82611fa4565b8181528460208386010111156119f357600080fd5b816020850160208301376000918101602001919091529392505050565b600060208284031215611a2257600080fd5b610e3a826118f4565b600060208284031215611a3d57600080fd5b813567ffffffffffffffff811115611a5457600080fd5b6112dc8482850161190b565b60008060408385031215611a7357600080fd5b823567ffffffffffffffff80821115611a8b57600080fd5b611a978683870161190b565b9350602091508185013581811115611aae57600080fd5b8501601f81018713611abf57600080fd5b8035611acd61192c82611f80565b8082825285820191508584018a878560051b8701011115611aed57600080fd5b6000805b85811015611b2857823588811115611b07578283fd5b611b158e8b838b01016119bf565b8652509388019391880191600101611af1565b5050508096505050505050509250929050565b600060208284031215611b4d57600080fd5b81518015158114610e3a57600080fd5b600060208284031215611b6f57600080fd5b5035919050565b600080600060408486031215611b8b57600080fd5b83359250602084013567ffffffffffffffff811115611ba957600080fd5b611bb58682870161197d565b9497909650939450505050565b60008060408385031215611bd557600080fd5b82359150602083013567ffffffffffffffff811115611bf357600080fd5b611bff858286016119bf565b9150509250929050565b600060208284031215611c1b57600080fd5b8135610e3a8161211f565b600060208284031215611c3857600080fd5b8151610e3a8161211f565b600060208284031215611c5557600080fd5b815167ffffffffffffffff811115611c6c57600080fd5b8201601f81018413611c7d57600080fd5b8051611c8b61192c82611fa4565b818152856020838501011115611ca057600080fd5b610f58826020830160208601612062565b600080600080600060808688031215611cc957600080fd5b85359450611cd9602087016118f4565b935060408601359250606086013567ffffffffffffffff811115611cfc57600080fd5b611d088882890161197d565b969995985093965092949392505050565b81835281816020850137506000828201602090810191909152601f909101601f19169091010190565b60008151808452611d5a816020860160208601612062565b601f01601f19169290920160200192915050565b60008251611d80818460208701612062565b9190910192915050565b60018060a01b0386168152846020820152836040820152608060608201526000611db8608083018486611d19565b979650505050505050565b6000602080830181845280855180835260408601915060408160051b870101925083870160005b82811015611e1857603f19888603018452611e06858351611d42565b94509285019290850190600101611dea565b5092979650505050505050565b8281526040602082015260006112dc6040830184611d42565b602081526000610e3a6020830184611d42565b60208082526043908201527f455243373235583a20435245415445206f7065726174696f6e7320726571756960408201527f726520746865207265636569766572206164647265737320746f20626520656d60608201526270747960e81b608082015260a00190565b60208082526026908201527f455243373235583a20696e73756666696369656e742062616c616e636520666f6040820152651c8818d85b1b60d21b606082015260800190565b6020808252818101527f4f776e61626c653a2063616c6c6572206973206e6f7420746865206f776e6572604082015260600190565b838152604060208201526000610f58604083018486611d19565b604051601f8201601f1916810167ffffffffffffffff81118282101715611f7857611f78612109565b604052919050565b600067ffffffffffffffff821115611f9a57611f9a612109565b5060051b60200190565b600067ffffffffffffffff821115611fbe57611fbe612109565b50601f01601f191660200190565b60008219821115611fdf57611fdf6120c7565b500190565b600082821015611ff657611ff66120c7565b500390565b6001600160e01b031981358181169160048510156120235780818660040360031b1b83161692505b505092915050565b805160208201516001600160601b0319808216929190601483101561205a5780818460140360031b1b83161693505b505050919050565b60005b8381101561207d578181015183820152602001612065565b8381111561208c576000848401525b50505050565b600181811c908216806120a657607f821691505b60208210811415610a7757634e487b7160e01b600052602260045260246000fd5b634e487b7160e01b600052601160045260246000fd5b634e487b7160e01b600052602160045260246000fd5b634e487b7160e01b600052603260045260246000fd5b634e487b7160e01b600052604160045260246000fd5b6001600160e01b031981168114610d0c57600080fdfea264697066735822122063b8bd4eeed622cf6e8806a0ecb7d3fad2a5d1b672f0b30dbe47de230f72642c64736f6c63430008070033a2646970667358221220f1c751077514511a56a03bd0f27eb6cc7420cab431cbcd5fc104565748780aa764736f6c63430008070033",
  "linkReferences": {},
  "deployedLinkReferences": {}
}